:100000000C942A000C9434000C9434000C943400AA
:100010000C9434000C9434000C9434000C94340090
:100020000C9434000C9434000C9434000C94340080
:100030000C9434000C9434000C9434000C94340070
:100040000C9434000C9434000C9434000C94340060
:100050000C94340011241FBECFE5D8E0DEBFCDBF25
:100060000E943B000C9480000C9400008FEF8ABB30
:10007000A098A89A08950E94360080E090E020E0C1
:10008000E1E0F0E0A1E0989933C0811132C0CFE304
:10009000DCE92197F1F700C0000098992AC03BB332
:1000A000492F50E0BF0102C0660F771F9A95E2F713
:1000B000CB01832B8BBB9BB3BA0161507109677075
:1000C0007727EF0102C0CC0FDD1F6A95E2F78C2F76
:1000D000809589238BBBCA010196877090789923FC
:1000E00024F40197886F9F6F0196982F8A2F01C083
:1000F000822FCFE0D7E22197F1F700C00000C3CFF5
:04010000F894FFCFA1
:00000001FF
