:100000000C942A000C945E000C9478000C949200DE
:100010000C9434000C9434000C9434000C94340090
:100020000C9434000C9434000C9434000C94340080
:100030000C9434000C9434000C9434000C94340070
:100040000C9434000C9434000C9434000C94340060
:100050000C94340011241FBECFE5D8E0DEBFCDBF25
:100060000E9456000C94AC000C94000085B781608F
:1000700085BF85B78D7F85BF85B7846085BF85B710
:10008000886085BF84B78F7B84BF8FB780688FBF40
:100090008BB780628BBF8BB780648BBF8BB7806858
:1000A0008BBF08958D9A8E9A8F9A08950E94520060
:1000B0000E943600959896989798FCCF1F920F92C1
:1000C0000FB60F9211242F938F939F93959A2FE33E
:1000D0008DE093E0215080409040E1F700C00000A7
:1000E0009F918F912F910F900FBE0F901F90189599
:1000F0001F920F920FB60F9211242F938F939F93FD
:10010000969A2FE38DE093E0215080409040E1F7F4
:1001100000C000009F918F912F910F900FBE0F9004
:100120001F9018951F920F920FB60F9211242F93C4
:100130008F939F93979A2FE38DE093E02150804017
:100140009040E1F700C000009F918F912F910F9098
:0C0150000FBE0F901F901895F894FFCF81
:00000001FF
