S01A0000556E6974375F4C6573736F6E315F4C6162322E737265638F
S11300000C942A000C9434000C9434000C943400A6
S11300100C9434000C9434000C9434000C9434008C
S11300200C9434000C9434000C9434000C9434007C
S11300300C9434000C9434000C9434000C9434006C
S11300400C9434000C9434000C9434000C9434005C
S11300500C94340011241FBECFE5D8E0DEBFCDBF21
S11300600E9436000C946D000C9400008FEF8ABB44
S113007041E050E080E090E06BB39A01082E02C0AA
S1130080220F331F0A94E2F7262B2BBB2FEF34E306
S11300906CE0215030406040E1F700C00000019660
S11300A08830910549F728E021503BB3CA01022E5C
S11300B002C0880F991F0A94E2F7809590958323D4
S11300C08BBB8FEF94E33CE0815090403040E1F7EC
S11100D000C000002111E8CFCDCFF894FFCF7F
S9030000FC
