S01D0000556E6974375F4C6573736F6E345F53656374696F6E2E73726563F5
S11300000C942A000C9447000C9447000C9447006D
S11300100C9447000C9447000C9447000C94470040
S11300200C9447000C9447000C9447000C94470030
S11300300C9447000C9447000C9447000C94470020
S11300400C9447000C9447000C9447000C94470010
S11300500C94470011241FBECFE5D8E0DEBFCDBF0E
S113006010E0A0E6B0E0ECE8F7E002C005900D92E5
S1130070A837B107D9F720E0A8E7B0E001C01D9286
S1130080AC37B207E1F70E9487030C94C4030C94C5
S11300900000FC01DB0111968C911197882319F063
S11300A0823069F023C0218181E090E00C9002C08D
S11300B0880F991F0A94E2F7822B81830895428165
S11300C081E090E09C010C9002C0220F331F0A943F
S11300D0E2F7242B228321810C9002C0880F991F00
S11300E00A94E2F78095822381830895328181E026
S11300F090E0AC010C9002C0440F551F0A94E2F743
S1130100242F20952323228321810C9002C0880F61
S1130110991F0A94E2F780958223818308954423EA
S113012071F04130C1F4FC01428121E030E002C0B1
S1130130220F331F6A95E2F7242B22830895FC01D2
S1130140428121E030E002C0220F331F6A95E2F7BA
S11301502095242322830895CF92DF92EF92FF9279
S11301600F931F93CF93DF9300D0CDB7DEB7D82E74
S11301701A822091780088E090E0821B9109089708
S113018004F587E090E017E06894EE24E3F8F12C9E
S1130190FC01E05AFF4F80818983BE016F5F7F4F6E
S11301A089E390E00E9449001150812F012E000C38
S11301B0990B20917800A701421B510984179507D8
S11301C03CF740E061E086E390E00E948F0040E06D
S11301D062E086E390E00E948F002091780088E03E
S11301E090E0821B910908973CF587E090E00F2E80
S11301F0F7E0CF2EF02DED2CF12C08E010E0A70154
S1130200082E02C0559547950A94E2F74170FC0107
S1130210E05AFF4F608189E390E00E948F00CA9406
S11302208C2D0C2C000C990B20917800A801421BFA
S11302305109841795071CF7243009F045C00000C4
S113024041E063E086E390E00E948F0000C000007C
S113025040E063E086E390E00E948F00000060913C
S1130260780070E088E090E0861B970B089754F5BF
S113027027E030E00F2EF7E0CF2EF02DED2CF12CFF
S113028008E010E0C9010E949C03A70102C0559533
S113029047958A95E2F74170F901E05AFF4F608172
S11302A089E390E00E948F00CA942C2D0C2C000C42
S11302B0330B6091780070E0C801861B970B2817F8
S11302C0390704F700C00000000041E063E086E362
S11302D090E00E948F0000C0000040E063E086E3ED
S11302E090E00E948F0000C000008FE99FE001971A
S11302F0F1F700C00000DD205CF49FEB9D1518F0C1
S1130300D09279000AC081E58D0D8093790005C0F3
S113031042E0D41202C0109279000F900F90DF9146
S1130320CF911F910F91FF90EF90DF90CF900895A0
S1130330CF92DF92EF92FF920F931F93CF93DF93AD
S113034000D0CDB7DEB78C011A8281E08983BE016B
S11303506F5F7F4F86E390E00E94490082E08983CB
S1130360BE016F5F7F4F86E390E00E94490083E007
S11303708983BE016F5F7F4F86E390E00E9449004E
S113038040E063E086E390E00E948F008FE39CE905
S11303900197F1F700C00000F8018081883289F0EC
S11303A030F4803271F0843209F07FC00AC08433A3
S11303B009F477C0883309F474C0803309F075C038
S11303C070C084E08093780087E090E00F2EF7E01F
S11303D0FF2EF02D6894CC24C3F8D12CFC01E05AF4
S11303E0FF4F80818983BE016F5F7F4F89E390E077
S11303F00E944900FA948F2D0F2C000C990B209128
S11304007800A601421B5109841795073CF7483030
S113041051054CF587E090E00F2EF7E0DF2EF02D2C
S11304206894EE24E3F8F12CF801408150E0082EA2
S113043002C0559547950A94E2F74170FC01E05AD1
S1130440FF4F608189E390E00E948F00DA948D2D44
S11304500D2C000C990B20917800A701421B510927
S1130460841795070CF740E061E086E390E00E9472
S11304708F0040E062E086E390E00E948F0000007D
S113048041E063E086E390E00E948F0000C000003A
S113049040E063E086E390E00E948F0000C000002B
S11304A00AC088E08093780006C088E080937800D2
S11304B088E3F8018083F8018181883039F018F0ED
S11304C08C50843018F08FE0F8018183F801828128
S11304D08450843010F086E08283F80180810E9489
S11304E0AC00F80182810E94AC00F80181810E9475
S11304F0AC0081E00E94AC0082E00E94AC000F904E
S11305000F90DF91CF911F910F91FF90EF90DF90AB
S1130510CF900895CF92DF92EF92FF920F931F93A3
S1130520CF93DF9300D0CDB7DEB7D82E809179007A
S113053091E0980F90937900803131F480EC8093AE
S11305407B000E94AC000AC0913240F081E00E941E
S1130550AC0082E00E94AC00109279001A822091D3
S1130560780088E090E0821B9109089704F587E001
S113057090E017E06894EE24E3F8F12CFC01E05AD3
S1130580FF4F80818983BE016F5F7F4F89E390E0D5
S11305900E9449001150812F012E000C990B2091CB
S11305A07800A701421B5109841795073CF741E0E5
S11305B061E086E390E00E948F0040E062E086E321
S11305C090E00E948F002091780088E090E0821BE8
S11305D0910908973CF587E090E00F2EF7E0CF2EC5
S11305E0F02DED2CF12C08E010E0A701082E02C03C
S11305F0559547950A94E2F74170FC01E05AFF4F84
S1130600608189E390E00E948F00CA948C2D0C2CA9
S1130610000C990B20917800A801421B5109841702
S113062095071CF7243009F047C0000041E063E05F
S113063086E390E00E948F0000C0000040E063E089
S113064086E390E00E948F0000006091780070E0E3
S113065088E090E0861B970B089764F527E030E06C
S11306600F2EF7E0CF2EF02D0D2D10E06894EE2420
S1130670E3F8F12CC9010E949C03A80102C055951E
S113068047958A95E2F74170F901E05AFF4F60817E
S113069089E390E00E948F00CA942C2D0C2C000C4E
S11306A0330B6091780070E0C701861B970B281705
S11306B0390704F700C00000000041E063E086E36E
S11306C090E00E948F0000C0000040E063E086E3F9
S11306D090E00E948F0000C000000F900F90DF9107
S11306E0CF911F910F91FF90EF90DF90CF900895DD
S11306F0CF93DF93EC018881882331F021960E9407
S11307008A0289918111FBCFDF91CF910895CF9314
S1130710DF9300D01F92CDB7DEB78FE08A8386E0E7
S11307208B8388E28983CE0101960E94980188E632
S113073090E00E947803FFCF97FB072E16F40094F5
S113074007D077FD09D00E94B00307FC05D03EF422
S1130750909581959F4F0895709561957F4F089569
S1130760AA1BBB1B51E107C0AA1FBB1FA617B707D3
S113077010F0A61BB70B881F991F5A95A9F78095EF
S10F07809095BC01CD010895F894FFCFC2
S113078CFFFFFFFF040506074C6561726E2D696E51
S10B079C2D64657074682100EE
S9030000FC
