:100000000C942A000C9447000C9447000C94470071
:100010000C9447000C9447000C9447000C94470044
:100020000C9447000C9447000C9447000C94470034
:100030000C9447000C9447000C9447000C94470024
:100040000C9447000C9447000C9447000C94470014
:100050000C94470011241FBECFE5D8E0DEBFCDBF12
:1000600010E0A0E6B0E0EAEDF3E002C005900D92EA
:10007000A037B107D9F720E0A0E7B0E001C01D929A
:10008000A637B207E1F70E94D7010C94EB010C945C
:100090000000A09AA19AA29AA39AA89AA99AAA9AA9
:1000A000AB9AA498A598A698A798AC9AAD9AAE9A40
:1000B000AF9A08959F92AF92BF92CF92DF92EF9244
:1000C000FF920F931F93CF93DF93CDB7DEB728979F
:1000D0000FB6F894DEBF0FBECDBF84E0898385E004
:1000E0008A8386E08B8387E08C831D8281E08E8308
:1000F00082E08F8383E08887DE01159640E050E040
:10010000EE24E394F12C95B35A016D0197010C9004
:1001100002C0220F331F0A94E2F7822F80958923B1
:1001200085BBFE01319620E030E083B3B9019190A8
:1001300090E0092C02C0959587950A94E2F780FD1E
:1001400037C087E893E10197F1F700C0000083B35F
:1001500090E0092C02C0959587950A94E2F780FDFE
:1001600027C021E030E002C0220F331F9A94E2F74B
:1001700083B390E082239323892BD1F325B3FE012F
:10018000EA0DFB1D81E090E0058002C0880F991FF9
:100190000A94E2F7822B85BBC501880F991F880F4F
:1001A000991F805A9F4FFC01E60FF71F808119C0ED
:1001B0002F5F3F4F2430310509F0B7CF25B311969B
:1001C000C701F601008002C0880F991F0A94E2F768
:1001D000822B85BB4F5F5F4F4430510509F093CFB1
:1001E00080E028960FB6F894DEBF0FBECDBFDF913A
:1001F000CF911F910F91FF90EF90DF90CF90BF9024
:10020000AF909F9008958AB38F708ABB8AB38ABBE0
:100210008BB38F708BBB8BB38BBBC198C29A000022
:10022000C39A000089B30000C3980000C39A00007D
:100230000000C3980000881F8827881F0895CF9367
:10024000C82F0E9403018111FCCFD49AD59AD69A67
:10025000D79AC198C2988BB38F708BBB8BB39C2FEE
:10026000907F892B8BBB0000C39A0000C3980000CD
:100270008BB38F708BBB2BB330E1C39FC0011124B4
:10028000822B8BBB00000000C39A0000C3980000C3
:1002900083EF91E00197F1F700C00000CC234CF40C
:1002A000C03C18F4C093700008C0CF5AC0937000CF
:1002B00004C0C23011F410927000CF910895B99A21
:1002C000BA9ABB9AC39887E893E10197F1F700C007
:1002D000000088E2809374008BB38F708BBB9BB35C
:1002E00080917400807F892B8BBB0000C39A000033
:1002F000C39800008FE08093710086E080937300C4
:10030000809174000E941F01809173000E941F0160
:10031000809171000E941F0181E00E941F0182E014
:100320000E941F010895CF93C82F0E9403018111DD
:10033000FCCF8091700091E0980F90937000803115
:1003400031F480EC809375000E941F010AC0913245
:1003500040F081E00E941F0182E00E941F01109284
:1003600070008AB38F708ABB8AB3806F8ABBC19AD0
:10037000C2988BB38F708BBB8BB39C2F907F892BD4
:100380008BBB0000C39A0000C39800008BB38F7032
:100390008BBB2BB330E1C39FC0011124822B8BBBDD
:1003A0000000C39A0000C3980000CF9108950E94F6
:1003B0005F010E9449000E945A00803239F481E0B6
:1003C0000E941F0182E00E941F01F5CF882399F34C
:0A03D0000E949301F0CFF894FFCFD4
:1003DA003738392F343536783132332D20303D2BAA
:00000001FF
