S00C00004C6162352E73726563D4
S11300000C942A000C9434000C9434000C943400A6
S11300100C9434000C9434000C9434000C9434008C
S11300200C9434000C9434000C9434000C9434007C
S11300300C9434000C9434000C9434000C9434006C
S11300400C9434000C9434000C9434000C9434005C
S11300500C94340011241FBECFE5D8E0DEBFCDBF21
S11300600E9436000C949D000C9400008FEF81BB1D
S113007060E070E0E0E040E02AE030E002C060E0F0
S113008070E0949892B3907F92BB92B39E2B92BBF4
S1130090959A8FE19EE40197F1F700C000009598CE
S11300A092B3907F92BB92B3942B92BB949A8FE1BC
S11300B09EE40197F1F700C000006F5F7F4F623349
S11300C07105F9F6842F90E00196B9010E9475003C
S11300D0482F8111D4CF8E2F90E00196B9010E9450
S11300E07500E82F60E070E0CCCF97FB072E16F484
S11300F0009407D077FD09D00E94890007FC05D041
S11301003EF4909581959F4F0895709561957F4F2A
S11301100895AA1BBB1B51E107C0AA1FBB1FA6174A
S1130120B70710F0A61BB70B881F991F5A95A9F79C
S111013080959095BC01CD010895F894FFCF01
S9030000FC
