S00C00004C6162342E73726563D5
S11300000C942A000C943F000C943F000C943F0085
S11300100C943F000C943F000C943F000C943F0060
S11300200C943F000C943F000C943F000C943F0050
S11300300C943F000C943F000C943F000C943F0040
S11300400C943F000C943F000C943F000C943F0030
S11300500C943F0011241FBECFE5D8E0DEBFCDBF16
S113006010E0A0E6B0E0E8E0F1E002C005900D92F7
S1130070AA36B107D9F70E9441000C9482000C946F
S113008000008FEF81BB80E0CAE0D0E090E0FC018B
S1130090E05AFF4F208122BB0196BE010E945A0004
S11300A02FEF39E698E1215030409040E1F700C04D
S11300B00000ECCF97FB072E16F4009407D077FDD1
S11300C009D00E946E0007FC05D03EF490958195FE
S11300D09F4F0895709561957F4F0895AA1BBB1B90
S11300E051E107C0AA1FBB1FA617B70710F0A61B34
S11300F0B70B881F991F5A95A9F780959095BC0155
S10B0100CD010895F894FFCF2E
S10D01083F065B4F666D7D077F6FB5
S9030000FC
